:020000040800F2
:1000000058A3002091CC020819BC02081BBC0208AE
:100010001DBC02081FBC020821BC0208F5EB020847
:1000200000000000000000000000000023BC0208E7
:1000300025BC02080000000027BC020829BC0208F9
:10004000F9EB0208FDEB02082DBC020801EC0208E6
:1000500005EC020809EC02080DEC020811EC02089C
:1000600015EC020833BC020819EC02081DEC02086A
:1000700021EC020825EC020829EC02082DEC02080C
:1000800031EC0208E1BC0208E7BC020835EC0208CA
:1000900039EC02083DEC020841EC020845EC02088C
:1000A000EDBC020849EC02084DEC020851EC0208D4
:1000B00055EC020853BC020859BC020859EC02086E
:1000C0005DEC020861EC020865EC020869EC0208CC
:1000D0006DEC020871EC020875EC020879EC02087C
:1000E0007DEC020881EC020885EC020889EC02082C
:1000F0008DEC020891EC02085FBC020895EC020846
:1001000099EC02089DEC0208A1EC0208A5EC02089B
:10011000A9EC0208ADEC0208B1EC0208B5EC02084B
:10012000B9EC0208BDEC0208C1EC0208C5EC0208FB
:10013000C9EC020881BC0208CDEC0208D1EC02082F
:10014000D5EC0208D9EC020865BC0208DDEC020817
:10015000E1EC0208E5EC0208E9EC0208EDEC02082B
:1001600038B5040001D1012032BD04F1840568686E
:1001700018B900F022F800F025F800F015F808B1E1
:1001800000F039F800F034F8012804D000F004F849
:1001900021F02A011EE032BD2068416821F490411F
:1001A0004160206881687047242068602068016889
:1001B000490849000160A06A704700212970204663
:1001C00000F0B4BAE86B10B9DFF85012E963E96BDC
:1001D00020460847816000F004F8BDE8324000F096
:1001E00043BC2068016841F001010160204670476E
:1001F000204600F0C3BA204600F0D3BB38B5040057
:1002000001D1012032BD04F18405242068602068FA
:10021000016849084900016022680020002110603F
:100220002368596021688860286C10B9DFF8F011E4
:100230002964296C204688470020E8600021696015
:10024000A860E1662067297032BD000010B5034642
:1002500003F15404606B20283CD109B1100001D196
:10026000012010BD1965228062800020606200219B
:10027000E1632120606321699868B1F1005F15D1C5
:10028000B0F5805F04BF1869002819BFDFF8840447
:100290006062DFF8841461621A6800F090F841F43B
:1002A000000100F01FFAF7D1002010BDB0F5805F0B
:1002B00004BF1869002807BFDFF860146162DFF827
:1002C0006004606200F0F2FC41F0800100F00AFA84
:1002D000F8D1E9E7022010BD38B50346D3F88C0009
:1002E00020280AD109B1100001D1012032BD00F04F
:1002F0006CF8BDE8384000F054BC022032BD70B547
:10030000044604F15405686B1346202855D1002992
:1003100045D0100043D021652A806A800020E86320
:1003200021216963A86A00283BD0DFF8F813016631
:10033000A96ADFF8F4034866A96ADFF8380488661A
:10034000A96A00F0B8FC02BF206900285300A86A1F
:100350009BB290F850100A0616D5406F00281CBFBB
:100360000068002817D08360A96A206D4A6F13685F
:10037000D860A96A26684A6F136806F128001861D8
:10038000A86A00F0F9FF05E0216801F12802216D5B
:1003900001F05EF928B11020E86320216963012093
:1003A00070BD216840200862226800F008F841F022
:1003B000800100F097F9F7D170BD022070BD02F105
:1003C000080151E8001F083270470020D8661868FD
:1003D000DFF8A443A0420CD04068040209D5186895
:1003E00050E8004F054644F0806445E8004000288E
:1003F000F5D1184670472068816848067047216823
:1004000001F1080353E8001F206800F1080221F001
:10041000400142E800100028704700009D8A000853
:10042000D78B00082DE9F04104462268D66940F6D2
:100430000F0C10460768936804F15C0507F0200074
:1004400006F0200116EA0C0F0DD1002914D010B9C6
:10045000D80040F18C80A969002900F03F81204636
:10046000BDE8F0410847DFF8E0C813EA0C0F04BF0D
:10047000DFF8D8E817EA0E0F79D05FEAC67E48BFEA
:100480005FEAC75807D54FF0010EC2F820E06A6B4B
:1004900042F001026A63B2070AD5DA0708D5D4F838
:1004A00000E00222CEF820206A6B42F004026A6368
:1004B00072070AD5DA0708D5D4F800E00422CEF88E
:1004C00020206A6B42F002026A6332070DD50028D1
:1004D00008BF13EA0C0F08D0D4F800C00822CCF8EB
:1004E00020206A6B42F008026A63320509D57F0159
:1004F00007D526684FF4006232626A6B42F0200230
:100500006A636A6B002A31D031B108B9D80003D5CB
:10051000A96909B120468847686B21688A68510635
:1005200002D410F0280F1CD0204600F0DFFBFFF7AC
:1005300062FF11D5FFF763FFFCD1686A60B10FF667
:10054000A501C166686A01F005F900280ED0686A45
:10055000C16EBDE8F04108472046AA6CBDE8F041F5
:100560001047A96C2046884700206863B6E02869D8
:10057000012840F07F80F0067CD5F9067AD510205E
:100580001062226829889068420637D56A6A106826
:10059000806C80B2002825D0884223DA6880106DF4
:1005A000812816D000F0F5FDFCD100F0A4F8FCD1B4
:1005B000FFF725FFFCD1202028630021296100F0EE
:1005C00095F821F0100100F08DF8F8D1686A01F07B
:1005D00076F802206861298868882A6E091A89B22B
:1005E000204644E0884204BF106D812876D1022263
:1005F0006A6120462B6EBDE8F04118476A8868881A
:10060000891A00281CBF88B2002867D022461068CB
:1006100050E8003F044623F4907344E8003000287B
:10062000F5D1106800F1080454E8004F00F1080308
:10063000DFF85C03044043E800400028F1D102F1F8
:100640005C0020230363002404618461106850E887
:10065000003F044623F0100344E800300028F5D1A1
:1006600002F15C0302205861104689B21A6EBDE89F
:10067000F0411047300609D5390601D4180205D5D6
:10068000E96959B32046BDE8F0410847700613D523
:10069000790611D500F02AF821F0400100F022F887
:1006A000F8D104F15C012020C8620022CA61204612
:1006B000C96BBDE8F0410847300206D5790004D582
:1006C0002046EA6DBDE8F0411047F00148BF002F19
:1006D00004D52046AA6DBDE8F0411047BDE8F08181
:1006E00041F4807142E8001000287047206850E80B
:1006F000001F02467047216801F1080353E8001FFC
:1007000020684908490000F1080242E8001000286A
:1007100070470000930E0008F70E00083B0E00081B
:10072000110E0008510D0008810D0008DFF8641952
:1007300040F8941FDFF860294260DFF86019DFF8A5
:100740006029C1600261DFF85C19DFF85C29416152
:100750008261DFF85819DFF85829C1610262DFF8B9
:100760005439DFF85419DFF85429836041628262FA
:1007700070470000950D000800240046F8B50446B7
:100780002268DFF83C0900251368A168034020694E
:100790000B4361690343E0690B43034313605168F2
:1007A000E06821F4405101435160DFF8D019A3699A
:1007B0008A421CBF206A03439668DFF8C409DFF849
:1007C000C4E9064033439360D36A606A0FF2286637
:1007D0001B0940EA0313DFF8E809DFF8E879D36280
:1007E0004FF4004372453AD13F6807F00307032FE7
:1007F0005AD8DFE807F0025350564FF0010CE16978
:100800004FF6F077B1F5004F40F08D80BCF1000F4E
:100810000FD0BCF1010F00F07E80BCF1040F0CD0B2
:10082000BCF1080F00F07A80BCF1100F00F0798065
:10083000A2E001F0DBFB002810D000F0ABF84A0882
:1008400002EB4002B2FBF1F0A0F11001B942EFD28D
:100850000740C0F3420007432068C7608DE0DFF81F
:1008600068C962450CD13F6817F00C0706D0042F09
:1008700014D0082F0FD00C2F13D015E0AC46BEE7D4
:100880008A4211D1BF6807F00307032F0CD8DFE8B5
:1008900007F0190502084FF0040C07E04FF0080CB0
:1008A00004E04FF0100C01E04FF0200C8A42A6D17A
:1008B000BCF1040F0AD0BCF1080F15D0BCF1100F29
:1008C00015D059E001F0A0FB002856D0616A36F837
:1008D0001120B0FBF2F6626802EB42018E424BD36C
:1008E0001303B34205D247E001F061FBECE7184681
:1008F000ECE75008002110EB0620DFF87C7951EB83
:100900001661002301F000FCA0F54076BE4233D210
:100910002168C86031E001F06EFB8CE701F047FB15
:1009200089E7184689E7BCF1000F0CD0BCF1010F34
:100930001AD0BCF1040F09D0BCF1080F17D0BCF1DC
:10094000100F17D018E001F051FBB0B100F022F801
:1009500000EB5100B0FBF1F0A0F11001B9420BD255
:10096000226880B2D06008E001F045FBEDE701F0BD
:100970001EFBEAE71846E9E7012504F168000121BA
:10098000002341800180C36003612846F2BD00005E
:10099000FEFFFFEF626A616836F81230B0FBF3F0D9
:1009A000704790F828100A0706D502685368816BD3
:1009B00023F400430B43536090F82810CA0706D570
:1009C00002685368C16A23F400330B43536090F804
:1009D00028108A0706D502685368016B23F4803318
:1009E0000B43536090F828104A0706D502685368F5
:1009F000416B23F480230B43536090F82810CA0600
:100A000006D502689368C16B23F480530B4393604F
:100A100090F828108A0606D502689368016C23F4C2
:100A200000530B43936090F828104A0610D50268D3
:100A30005368416C23F480130B435360436CB3F54C
:100A4000801F05D15368816C23F4C0030B435360AE
:100A500090F828100A0606D501684A68C06C22F48E
:100A6000002202434A607047F8B5044604F1840549
:100A70000020E86001F060FC064620686FF07E47C9
:100A800001680A0714D50097334600224FF400117D
:100A9000204600F03CF858B1FFF728FE21F0800115
:100AA000FFF720FEF8D104F184002021416016E018
:100AB000206801684A0716D50097334600224FF494
:100AC0008001204600F023F868B100F016F8FCD150
:100AD000FFF711FEFCD104F1840020218160002287
:100AE00002700320F2BD202068602021A960002050
:100AF000E066002121672870F2BD206850E8001FE1
:100B0000024621F4907142E80010002870472DE958
:100B1000F04105460E4690461F46069C2868C1696E
:100B20003140B1420CBF01200020404537D114F1C3
:100B3000010FF3D001F000FCC01B844200D314B9B4
:100B40000320BDE8F081286801684A07E6D5802EB9
:100B500018BF402EE2D0C169080704D42968C869CB
:100B60000105DBD50DE02A6808201062284600F058
:100B7000BDF805F184000821C16000220270012047
:100B8000DFE729684FF400600862284600F0AEF8FD
:100B900005F184002021C16000220270D0E700200E
:100BA000CFE730B50346996503F15C010A804A80BE
:100BB000002088619868FF24B0F5805F04D118692F
:100BC00090B940F2FF140FE018B9186960B17F20A6
:100BD00007E0B0F1805F06D1186908B97F2403E00F
:100BE0003F20888001E000248C800020486322247C
:100BF0000C63196801F1080555E8001F186800F139
:100C0000080441F0010144E800100028F1D103F18B
:100C10005C018868B0F1005F26D18889824223D3C5
:100C20009A68B2F5805F04BF1869002803D10FF2FB
:100C30009D528A6109E00FF299448C61186920B1D4
:100C400000F034F8FFF74CFDFAD1196801F10804FF
:100C500054E8001F186800F1080241F08051FFF7C6
:100C600041FDF2D1002030BD9868B0F5805F04BF2F
:100C7000186900280CD10FF235328A61186850E8E3
:100C8000001F024641F02001FFF72CFDF6D1E9E7F5
:100C90000FF2C5228A6118690028EFD000F006F82B
:100CA00041F49071FFF71EFDF8D1DBE7196851E8B8
:100CB000001F1A6870470020C866A068B0F5805F02
:100CC000704710B500F008F8FCD100F006F9FCD12F
:100CD0002021C0F8881010BD016851E8002F0B4694
:100CE00022F0C00243E8002100297047016851E862
:100CF000002F0B4622F4907243E800210029F5D121
:100D0000016801F1080353E8003F01F10802DFF830
:100D100058160B4042E800310029F1D1C16E01297B
:100D200009D1026852E8002F036822F0100243E85C
:100D300000210029F5D12021C0F88C100022C266C4
:100D4000426770470000000001000010200100040D
:100D50000146C86D096D81290FD00022A0F85620E8
:100D6000036803F1080252E8002F083322F08002E2
:100D700043E800210029F3D180E0D0F8981008471B
:100D8000C06DD0F894100847516CBDE8104008477A
:100D900000000000F8B5C46D04F1880528686E688D
:100DA000216804F156078A68110606D5212804D166
:100DB000002038802046FFF784FF216888684106BC
:100DC00006D5222E04D1002038812046FFF78EFF61
:100DD000A86840F01000A8602046E969BDE8F4402A
:100DE00008470000C06D0022002300F156010A816F
:100DF0000B80D0F8A4100847010002000400060090
:100E000008000A000C0010002000400080000001D3
:100E1000D0F8881021290FD1B0F8561001B923E07D
:100E2000036D026819789162016D4A1C0265B0F881
:100E300056104A1EA0F856207047D0F88810212975
:100E400011D1B0F8561001B90EE0036D026819888F
:100E5000C1F308019162016D8A1C0265B0F8561059
:100E60004A1EA0F856207047026852E8002F036817
:100E700022F0800243E800210029F5D1016851E801
:100E8000002F0B4642F0400243E800210029F5D133
:100E90007047D0F88810212900D0704730B500F194
:100EA0005602938A0DE00168CC69250608D5046DC9
:100EB00025788D62016D4C1C04651588691E1180B2
:100EC0005B1E99B241B111880029ECD100F005F800
:100ED000FCD100F036F8FCD130BD026802F1080404
:100EE00054E8002F016801F1080322F4000243E8EE
:100EF000002100297047D0F88810212900D07047C0
:100F000030B500F15602938A0FE00168CC692506DE
:100F10000AD5046D2588C5F308058D62016D8C1C0A
:100F200004651588691E11805B1E99B241B1118854
:100F30000029EAD1FFF7D1FFFCD100F002F8FCD183
:100F400030BD016851E8002F0B4642F0400243E8F3
:100F5000002100297047000010B500F050F81FD1A3
:100F60004B6A9188846D0B402370816D4B1C00F09F
:100F70004CF819D100F050F8FCD100F057F8FCD132
:100F800000F06CF80BD10023136100F05DF8FCD188
:100F90000168CB69DC0644BF10230B6292E0F3E6E4
:100FA000886940F00800886110BD000010B500F0AD
:100FB00026F81FD14B6A9188846D0B402380816D88
:100FC0008B1C00F022F819D100F026F8FCD100F0BB
:100FD0002DF8FCD100F042F80BD10023136100F092
:100FE00033F8FCD10168CB69DC0644BF10230B62E7
:100FF00068E0C9E6886940F00800886110BD00F12A
:101000005C020168136B222B7047836551884B1E6D
:101010005380518800297047026852E8002F036806
:1010200022F4907243E8002100297047026802F11F
:10103000080454E8002F01685208520001F1080327
:1010400043E8002100297047016851E8003F0C4641
:1010500023F0100344E800310029704700F15C02DE
:101060002021116300239361002151610168434BEA
:1010700099420CD049680B0209D5016851E8003F3C
:101080000C4623F0806344E800310029F5D1116952
:1010900001297047B33E0008A33E0008FF4A00083C
:1010A0000B5A00088F5B0008AF5D0008EB5D00087D
:1010B0005368000827540008EF690008D762000849
:1010C000F369FFCF1188126EBDE810401047000091
:1010D0002DE9F84300F010F94BD1A88900283AD047
:1010E000B80638D500F0DCF80870A06D421C00F09E
:1010F000CEF817D0F90748BF5FEAC85200F0BEF833
:1011000003D5F20701D500F0D9F8780703D5F20727
:1011100001D500F0CBF8686B20B1A96C2046884758
:101120000020686368880028DAD100F032F8FCD12A
:1011300000F039F8FCD100F0FDF809D100F0EAF830
:1011400044BF1021016229882A6E2046904702E0A0
:10115000696C20468847688868B1A98988420ADA9C
:1011600000F0BEF8FCD18148A86100F0AFF8FCD1D6
:1011700001E000F009F8BDE8F1830000002400461A
:10118000FFF4FF1100380140816941F008018161DD
:101190007047216851E8001F226821F4807142E8FD
:1011A000001000287047206800F1080252E8002F64
:1011B00000F108016C48024041E800200028704717
:1011C0000024F400E00C0246004400402DE9F843FE
:1011D00000F092F84BD1A88900283AD0B80638D54B
:1011E00000F05EF80880A06D821C00F050F817D067
:1011F000F90748BF5FEAC85200F040F803D5F2078C
:1012000001D500F05BF8780703D5F20701D500F0AF
:101210004DF8686B20B1A96C2046884700206863B0
:1012200068880028DAD1FFF7B4FFFCD1FFF7BBFFD5
:10123000FCD100F07FF809D100F06CF844BF102118
:10124000016229882A6E2046904702E0696C204698
:101250008847688868B1A98988420ADA00F040F8AE
:10126000FCD14348A86100F031F8FCD101E0FFF760
:101270008BFFBDE8F183000000FD0F0005D50121C3
:101280000162686B40F001006863B8077047A265AF
:101290006888411E69802068C76917F0070F70478A
:1012A0002168486AA16D09EA00007047216804209E
:1012B0000862686B40F00200686370472168022092
:1012C0000862686B40F0040068637047216851E869
:1012D000001F226841F0200142E8001000287047FA
:1012E000226802F1080353E8001F083221F0805100
:1012F00042E80010002870470446206804F15C05AD
:10130000B5F80490C7690146D1F800808668296B5A
:101310002229704700212961206850E8001F0246F9
:1013200021F0100142E800100028F5D12068C169C1
:10133000CA067047202028630021A9610020686147
:1013400020680C4988420CD04068010209D5206809
:1013500050E8001F024621F0806142E8001000289A
:10136000F5D1286901287047FEFFFFEF590F0008EB
:10137000AD0F00080024004638B504001EBF04F17C
:101380004C05A86A002835D0297A226852690129BB
:1013900003D002292AD1D10328D52A7A012A24D1BF
:1013A0002978012901D1022032BD00F025F8A96A6F
:1013B000002008612068416941F4BA414161A8698F
:1013C00020B12068416941F400714161686A20B12F
:1013D0002068416941F400514161A86A00226946D0
:1013E000006800F029F800F010F81EE04020E860E6
:1013F00000212970012032BD0121297002222A72A8
:10140000022303730021E9607047AA6A216810680B
:10141000000C00040860AB6A00994FF6FC701A6873
:10142000236802400A43DA6770472068416941F047
:1014300001014161002032BD09B1034808600AB1D1
:101440000520106070470000000001F82DE9F84FFA
:10145000044600F071FF0646ACB104F14C050020D3
:101460002870022129722068416941F0060141611A
:1014700021684869C20708D500F05EFF801B062876
:10148000F6D300F0DEF8012076E04A69206ADFF842
:10149000ECA022F4430202434A616269E0692169D7
:1014A000374B02430A43A169364EDFF8DCB01143E3
:1014B0002268DFF8D8C0DFF8D8E0DFF8D880DFF89E
:1014C000D890524518BF4A450BD0424518BF7245C7
:1014D00007D0624518BF5A4503D0B24218BF9A429E
:1014E0000ED1A76AE06A7F1E3F05014307F07C77B3
:1014F00047EA0100616A491E090101F47C71014358
:10150000106C00F08020014311642179A06801F083
:101510003F010843216B0143E068B0F5806F13D1B0
:101520002068504518BF48450BD0404518BF70454E
:1015300007D0604518BF584503D0B04218BF984245
:1015400007D141F4806104E0B0F5007F08BF41F4A9
:10155000007122681148536C03401943516422689A
:101560000021002091642168C867606B00216860D9
:10157000E960012028720020BDE8F28F500002408F
:10158000D003024050030240D00202405002024009
:10159000D001024050010240D0000240C031E03C86
:1015A00070B5044600F0C8FE05468CB1206841695C
:1015B000060B360341F00601416120684169C80706
:1015C00008D500F0B9FE401B0628F6D300F039F824
:1015D000012070BD216800200022086023685A6144
:1015E0002168086420680021426422680020916418
:1015F00021680022C8642068002102652268D16742
:10160000706822680121503AD20902F01F0291400D
:101610008843706021684FF4FE400022C86004F1E6
:101620004C0100204861C861486208698A610A6209
:101630008A6200B10A6100204860CA6008720A70BC
:1016400070BD04F14C001021C1600322027270478A
:1016500070B504002AD004F14C052878012801D186
:10166000022070BD012028702E7A012E1AD102208E
:1016700028720026EE60204600F057F92068416984
:1016800041F4BA414161A86920B12068416941F43F
:1016900000714161686A20B12068416941F40051DC
:1016A000416105E04020E86000212970012070BD03
:1016B0002068416941F001014161002070BD38B5E9
:1016C000044600F039FE05463CB304F14C00017AB3
:1016D000022902D02022C2601DE021684A6942F03E
:1016E00004024A6105210172206801698A0416D446
:1016F00000F022FE401B0628F6D304F14C00C1681E
:10170000032241F01001C160027201790A0602D57C
:10171000826A0121117300210170012032BD4169EB
:10172000042341F00201416104F14C00037222687C
:101730004FF4FE410123D160037201790A0605D5F9
:10174000826A0121117323680021996400210170CC
:10175000002032BD30B100F154010A78022A03D0D2
:10176000202048600120704704220A700068416907
:1017700041F4005141F0040141610020704738B547
:1017800004462068010B0903C968A0F15002D20980
:1017900002F01F02D140C90740F1A380016904F1A2
:1017A0004C054A0509D541694A0506D54FF48061C3
:1017B000C160E86840F00100E860206801690A053E
:1017C00009D541690A0506D54FF40061C160E86892
:1017D00040F00200E86020680169CA0409D5416947
:1017E000CA0406D54FF48051C160E86840F0040097
:1017F000E860206801694A0409D541694A0406D5B0
:101800004FF48041C160E86840F00800E86020685B
:1018100001698A0509D541698A0506D54FF4007129
:10182000C160A96909B120468847206801698A0416
:1018300024D541698A0421D54FF40051C160287A2A
:10184000042815D12068416921F40051416100F05C
:1018500049F804D5A96A0873226800209064296AAF
:101860000020287000293CD02046BDE834400847BD
:1018700005202872696A09B12046884721680869ED
:10188000C2051FD54869C2051CD5287902060BD5AB
:10189000C86F002804BF886C002809D10121297273
:1018A000A96A0120087303E0886C08B90121297234
:1018B00021684FF440700022C86069692A7009B13C
:1018C00020468847E86860B100F00CF844BFA96A78
:1018D0000873E9690020287019B12046BDE834403A
:1018E000084731BD2068416941F002014161012092
:1018F000287229790A06704708B9012070470368E1
:101900000122180B503BDB0903F01F0300039A4030
:10191000CB0608D501F01101112941680CBF0A431B
:1019200021EA020242600020704710B50068846C12
:1019300063F30F0484644FF4FE43C360C164026523
:1019400010BDF0B40246106895681318506803EB98
:101950005004C00748BF4D44A3422DD013F8016B7B
:1019600016F0030004BF13F8010BC01C31090F2946
:1019700007D113F8011B0F3103E013F8017B05F8C1
:10198000017B401EF9D10029E6D013F8010BC6F304
:101990008106032E08BF13F8016B00EB06204042BE
:1019A00028440026B71E8F421EBF10F8017B05F8A1
:1019B000017B761CF6D1CFE7F0BC02F10C0070473A
:1019C0002DE9F84F040044D0DFF8F076D7F81C90EA
:1019D000D7F828A0207809F00C090AF00305C10700
:1019E0002AD5B9F1080F04D0B9F10C0F08BF032DA7
:1019F00051D1606800282CD0B9F1080F1CD139688A
:101A0000A068012221F48811014341F4803139603A
:101A10003868DFF8C416DFF8BC36000D00F00100AE
:101A20008240B1FBF2F1DFF8A8261160186800F0DF
:101A300089FC002840F0CA812078810712D5B9F1CD
:101A4000000F04D0B9F10C0F08BF022D46D1206958
:101A5000002800F0BB813869616920F4F81040EA81
:101A6000014038612078DFF87486DFF8745601078A
:101A700040F1AF8000F0D9F951D400F0CEF906461C
:101A8000D8F80000C1074AD400F056FC801B032898
:101A9000F6D3032071E1606888B13A68A16822F446
:101AA00088121043084300F0B5F9064638688103F0
:101AB000C2D400F041FC801B6528F7D3E9E7386801
:101AC00020F4881000F0A6F9064638688103B3D5E3
:101AD00000F032FC801B6528F7D3DAE7206978B183
:101AE000396841F48071396000F026FC0546386899
:101AF0004105B0D400F020FC401B0328F7D3C8E711
:101B0000386820F4807000F085F905463868410592
:101B1000A8D500F011FC401B0328F7D3B9E7EE6D00
:101B2000A069002843D041011AD5E06906F0805130
:101B3000884211D030010FD526F08066EE6500F0A6
:101B4000FBFB8346E86D010106D500F0F5FBA0EB39
:101B50000B001528F6D39CE726F08050E669064373
:101B6000A0690643EE6500F0E7FB0090B346A66966
:101B7000E86D10EA460F06D100F0DEFB0099401A2E
:101B80001528F4D385E786F010562BEA060BC5F826
:101B90005CB000F0D1FB8346E86D10EA460F16D02A
:101BA00000F0CAFBA0EB0B001528F5D371E726F077
:101BB0001056EE6500F0C0FB0646E86D10F0904F41
:101BC00005D000F0B9FB801B1528F6D361E700F0C3
:101BD00019F921784A075BD500F027F90CD400F0F9
:101BE0001CF90646D8F80000C10705D400F0A4FB94
:101BF000801B0328F6D34CE7E06841F2893828B30C
:101C0000E96D21F080010843E86500F095FB064688
:101C1000E86D810705D400F08FFB801B4045F7D3AA
:101C200037E7207B010608D5E86D01052ED400F0CA
:101C300083FB801B4045F7D32BE7E86D010525D5D5
:101C400000F07AFB801B4045F7D322E7E86D20F0D7
:101C50008100E865E86D20F00400E86500F06CFBA9
:101C60000646E86D810705D500F066FB801B404500
:101C7000F7D30EE7E86D010608D5E86D010505D537
:101C800000F05AFB801B4045F7D302E700F0BAF89A
:101C9000206A002870D0B9F10C0F70D00228386883
:101CA00020F08070386056D100F046FB0546D7F82A
:101CB00000A000F041FB401B0328E6D25FEA8A1037
:101CC000F5D4616A032907D14FEA1A52DFF80804F4
:101CD00002F00102D04001E0DFF8F003A36ADFF870
:101CE0000424B0FBF3F090422CBF0C220022D7F862
:101CF0002890DFF8F4035B1E00EA090001430A4361
:101D000042EA032242F48022BA62E06A216B401E5A
:101D1000491E40EA4120616B491E40EA0140A16B27
:101D2000491E40EA01607863E06B28B1C000B863E7
:101D3000B86A40F01000B862386840F0807000F077
:101D400069F804463868810116D400F0F5FA001BE2
:101D50000328F7D39DE600F0EFFA044638688101C6
:101D600005D500F0E9FA001B0328F7D391E6B96A1C
:101D7000DFF878030140B9620020BDE8F28F012846
:101D800024D0B86A796B636A00F003029A4201BFFB
:101D9000C0F30220401CA26A904217D1E26AC1F34C
:101DA0000800401C904201BFC1F34620401C226B3A
:101DB00090420BD1626BC1F30640401C904201BFC0
:101DC000C1F30660401CA16B884201D00120D4E71A
:101DD000B86BE16BC0F3CC008142CDD0B86A20F083
:101DE0001000B86200F0A8FA054600F0A5FA401B02
:101DF000FBD0E16B3846C9008163816A41F0100174
:101E00008162B9E7BAF1000F03D0286820F004001E
:101E100028607047386000F08FBAD8F8000040F0B2
:101E20000100C8F8000000F087BA28684FF0000AE7
:101E300041070AD42A684FF0010A42F004022A60DE
:101E4000286800F0040000900099D8F80000C1074D
:101E500070472DE9F0410400884637D0DFF89062E2
:101E6000306800F00F00404509D23168090948EA9E
:101E700001113160306800F00F00404526D1217813
:101E8000880609D5DFF840221368A069E16923F0CC
:101E9000170303430B4313602078DFF82072C10758
:101EA00042D53868616803290CD180016BD5F96986
:101EB00001F00C010C290CD0B96A012060F3155116
:101EC000B96206E0022902D1800302D45BE0420538
:101ED00059D5F9696068890840EA8101F96100F023
:101EE0002BFA05466068F96901F00C01B1EB800F2F
:101EF00008D000F021FA401B41F289318842F1D329
:101F0000032052E003280FD1B86A20F48010B86291
:101F100000F012FA0546B86A410205D400F00CFA46
:101F2000401B0B28F7D3EBE7396A226800209307A0
:101F300004D5C908C800A16801430120530704D58E
:101F400021F07000E16801430120120705D52069E6
:101F500021F4E06141EA001100E000B1396220782B
:101F6000C10644BF60697862316801F00F0188459D
:101F70000BD23068000948EA00103060316801F087
:101F80000F01414501D001200FE000F010F83A6A3E
:101F900058494F4B02F00702895CC84018604D4811
:101FA0000068BDE8F04100F0CDB9BDE8F0814349DB
:101FB000C86910F00C0001D144487047082818BFC8
:101FC00000F036B809684448090D01F00101C84025
:101FD000704780B5FFF7EBFF47490968454A3C4B1E
:101FE00001F00701515CC840186002BD80B5FFF7E1
:101FF000F0FF414A0CE080B5FFF7EBFF3E4A136863
:102000003E49C3F3022207E080B5FFF7E2FF3C4AF6
:1020100013683A49C3F30212895CC84002BD10EE4E
:10202000100A491CB0FBF1F010BD3648046807E007
:1020300010B5FFF7FAFFBCEEC00AC4F30661EEE785
:102040001E48416BC1F30801491C00EE101A816A59
:10205000B8EE400AC1F30222521C00EE902AF8EEBC
:10206000600ACA0643BF826BC2F3CC0201EE102A9B
:102070009FED111A01F00301B8EE411A022902D0B6
:10208000032903D00DE0DFED0E1A0CE000681249C1
:10209000000D00F00100C14001EE901AF8EE611A47
:1020A00001E0DFED051AC1EEA00ADFED061A01EE30
:1020B000210A20EE800A704700000000000C024652
:1020C0000024744B00000039000E02460024F40086
:1020D00074310020703100200048E80128080246D1
:1020E000940C024601127A00E0F8FFFFFCFFF8FFB3
:1020F00000200240988D0008200C0246D0EA020819
:10210000240C0246340C0246BBBBE1B1B2F5803F61
:1021100080F07E80022A1ED98C46B1FBF2F102FBD0
:1021200011C31B0443EA1043B3FBF2FC02FB1C3354
:1021300080B240EA0343B3FBF2F002FB103240EA04
:102140000C4000237047022A05D98446B0FBF2F008
:1021500002FB10C270474AB105D100F001024908E4
:102160005FEA3000704700220023704700F034B966
:102170000B000200002100207047904271EB030C1D
:10218000F6D3B3F5803F2FD2F0B5B3FA83F7B1FAA7
:1021900081F4A7F10F0E3D1B5340CEF1200602FA49
:1021A0000EF2F3415340B5F10F0746D80F3C2C44D3
:1021B0004140C4F12006A040F1414140B1FBF3F69B
:1021C00003FB1611A2FB0645001BA94102D2761E95
:1021D0008018594180EA010221FA0EF362FA0EF2E8
:1021E00000215A403046F0BD30B4B1FBF3FC03FB94
:1021F0001C11A2FB0C45001BA94103D2ACF1010C40
:102200008018594130BC02460B4660460021704799
:10221000B2F1807F65D3F0B5B2FA82F7B1FA81F4FA
:10222000C7F10F063D1B22FA06F307F1110EF2412A
:1022300020355A40B5F10F07B8D94140C4F1200606
:10224000A040F1414140B1FBF3FC03FB1C11A2FB98
:102250000C45001BA94103D2BCF1010C8018594167
:102260000F2F12D30F3FC90341EA5041B1FBF3F6E0
:1022700003FB1611A2FB0645D4EBC030A94102D2E4
:10228000761E8018594146EACC3C07B34140C7F15D
:102290002006B840F1414140B1FBF3F603FB1611B3
:1022A000A2FB0645001BA94102D2761E80185941A7
:1022B00080EA010221FA0EF3C7F1200462FA0EF25D
:1022C0000CFA07F05A402CFA04F13043F0BD80EAD2
:1022D000010221FA0EF3002162FA0EF260465A4022
:1022E000F0BD8C46B1FBF2F102FB11C31B0243EAC5
:1022F0001063B3FBF2FC02FB1C331B024CEA002010
:1023000043EA1063B3FBF2FC02FB1C331B024CEAF2
:10231000002043EA1063B3FBF2FC02FB1C331B02F8
:102320004CEA002043EA1063B3FBF2FC02FB1C32D0
:102330004CEA00200023704701484068704700BF06
:1023400068310020F8B504461F4D28780021002888
:102350002ED01E4A12681E4B1E68770702D54FF416
:102360007A710DE01B4B1B6813F4400306D0B3F5E4
:10237000800F08D0B3F5000F0ED015E04FF4FA51DE
:10238000B1FBF0F00EE04FF47A72B2FBF0F24FF4D2
:10239000FA43B3FBF2F107E04FF47A71B1FBF0F0CE
:1023A0004FF40042B2FBF0F1084600F06FF808B1BC
:1023B0000120F2BD002221464FF0FF3000F024F84A
:1023C000AC600020F2BD00BF6831002074310020F5
:1023D00010E000E0E00C024670478268521C826008
:1023E000426832B10268531C036011704168491E93
:1023F0004160704747490A6860F30A2240F2FA5088
:1024000060F31F420A60704770B5424B1C68C4F30A
:1024100002230124C3F10705052D2EBF0F2504FA61
:1024200005F56D1E1E1D072E34BF0023DB1E29403F
:10243000994004FA03F35B1E1A401143090102009C
:1024400002D43548815470BD344B02F00F021A4457
:1024500002F8041C70BD0000010007D4012200F046
:102460001F018A402E4B400943F82020704701008D
:102470000BD4012200F01F018A402A4B400943F887
:102480002020BFF34F8FBFF36F8F7047401EB0F116
:10249000807F07D22449486000228A600B6843F09D
:1024A00003030B60B0F1807F8041C043C00F7047D1
:1024B000010007D4012200F01F018A401B4B400994
:1024C00043F82020704700001949174A042820D8F3
:1024D000DFE800F00810161F0300116841F0040146
:1024E00011607047106820F0040010600A6822F440
:1024F00040020DE0106820F004001060012004E0AC
:102500001368022023F0040313600A6860F39752F3
:102510000A6070470CED00E000E400E018ED00E018
:1025200000E100E080E100E010E000E000E200E017
:10253000E00C024640F0200070472DE9F14FB0B0AA
:10254000924604910DF142013A9A2B9199464A70B4
:1025500000200AE01AF8011B0498309A90470028DE
:10256000049000F044860D98401C0D909AF80000ED
:1025700058B12528EED100200021002207900891B3
:1025800009920A910B920C9104E00D9800F031BE73
:1025900041F001011AF8010F2028F9D023280CD0AE
:1025A0002B2804D02D2805D0302809D00BE041F08D
:1025B0000201EFE741F00401ECE741F00801E9E72F
:1025C00041F01001E6E72A280FD1D9F8002052F88F
:1025D000040BC9F8002000280F9003D540420F904B
:1025E00041F004010AF1010A14E00F92DFF8082C0F
:1025F0000AE00F9B934205DA03EB830400EB4400EF
:1026000030380F900AF1010A9AF80000A0F1300367
:102610000A2BEED39AF800202E2A03D04FF0FF3079
:102620000E9029E01AF8010F2A2809D1D9F80020C4
:1026300052F8040BC9F800200E900AF1010A1BE0C1
:102640002D280CBF0AF1010A002000220E92DFF8AB
:10265000A84B0BE040B90E9BA34205DA03EB8305C0
:1026600002EB4502303A0E920AF1010A9AF8002074
:10267000A2F130030A2BEDD3ADF840100FF67C30F9
:102680009AF8001000F0C4FE08B11AF8010B8DF89A
:1026900042009DF84200682805D19AF80010682988
:1026A0000CD1622006E06C2804BF9AF800106C2957
:1026B00004D171208DF842000AF1010A12AA069293
:1026C0001AF801BBBBF125002CD01C3800F0978113
:1026D000001F022840F29381133800F0BA840938B1
:1026E00000F08D81801E00F04F85401E00F0FC84BC
:1026F000401E022840F28381001F00F0F584401F35
:1027000000F0F280401E00F0A484401E00F0DA8049
:10271000C01E0ED0801E00F09C84C01E00F0998464
:1027200000F03DBD0122252107928DF8481000F0F0
:1027300042BDD9F8000050F8044BC9F80000002C45
:10274000059440F0AB802B994878002800F0A180D8
:102750004FF0FF340FF6AC2000F06CFE241A40F06E
:10276000468500F028BD01236A4602A9304600F0E4
:102770000DFE002840F03B85641EF4D13096079C86
:1027800012AF74B1309E17F8011B0498B0470028AF
:10279000049000F02C850D98401C641E0D90F2D121
:1027A00030960A9C3021002C8DF800100CDD309EF4
:1027B00001236A4602A9304600F0E8FD002840F0F7
:1027C0001685641EF4D13096059F089C74B1309E26
:1027D00017F8011B0498B0470028049000F0078503
:1027E0000D98401C641E0D90F2D130960B9C302148
:1027F000002C8DF800100CDD309E01236A4602A9E2
:10280000304600F0C3FD002840F0F184641EF4D18E
:10281000309605980899099C471874B1309E17F8AE
:10282000011B0498B0470028049000F0E0840D9844
:10283000401C641E0D90F2D130960C9C3021002C6F
:102840008DF800100CDD309E01236A4602A9304647
:1028500000F09CFD002840F0CA84641EF4D130963C
:102860009DF8400041077FF581AE2020002D8DF8B6
:1028700000007FF77BAE309C01236A4602A9204608
:1028800000F084FD002840F0B2846D1EF4D1309435
:102890006CE60FF65830059000F08DBC0E9D002DB3
:1028A00004D5204600F0E6FD044608E02A46002153
:1028B000204600F0E9FD002814BF041B2C460894B4
:1028C00000F079BCD9F8001051F8040BC9F80010D9
:1028D00020F00002002121F0FF33CDE9022312ACE9
:1028E0000594782100F04CBC2B99487820B14FF02A
:1028F000FF340FF6C8202FE79DF84200622860D011
:10290000682817D06A283FD06C2806D0712847D095
:1029100074282CD07A281DD062E0D9F8001051F824
:10292000040BC9F80010002866D14FF0FF340FF6F1
:10293000A42011E7D9F8001051F8040BC9F80010D1
:1029400020B94FF0FF340FF68C2005E70D99018078
:1029500000F031BCD9F8001051F8040BC9F8001090
:10296000002849D14FF0FF340FF66820F4E6D9F87B
:10297000001051F8040BC9F8001000283CD14FF0AA
:10298000FF340FF65020E7E6D9F8001051F8040B99
:10299000C9F8001080B94FF0FF340FF63820DBE69D
:1029A000D9F8001051F8040BC9F8001020B94FF005
:1029B000FF340FF62020CFE60D9AD317C0E900238D
:1029C000F9E3D9F8001051F8040BC9F8001020B948
:1029D0004FF0FF340FF6FC10BEE60D990170EAE3EC
:1029E000D9F8001051F8040BC9F8001020B94FF0C5
:1029F000FF340FF6E010AFE60D990160DBE39DF8C0
:102A000042004C2807BFD9F80010CA1DD9F80000B1
:102A1000C21D22F00702C9F80020D2E900010832E5
:102A2000C9F80020CDE90201C80F02D007982D2176
:102A30000AE0BDF84000810702D507982B2103E08A
:102A4000C00705D50798202112AA1154401C0790F1
:102A500012A807994BF0200300EB010CDDE90201FD
:102A6000CDE92C01612BCDF814C021AC0BD00E9810
:102A7000002848BF062105D404BF4BF0200067287A
:102A800001D101210E91DDE902014F0047EAD07723
:102A90007E15FF174FF0FF32974208BF964210D1C4
:102AA000090341EA10510003002908BF002808D09B
:102AB000ABF1610503211A2D089118D30FF63411DB
:102AC00010E0DDE902014A00521512F1010F11D1A7
:102AD00008030FD1ABF1610503211A2D08911FD313
:102AE0000FF618110322604600F0FAFC63E30FF6BC
:102AF0000011F7E7DDE902016A4600F04BFDCDE980
:102B000002014BF02000612811D10598302202709B
:102B1000811C0591BBF1610F0CBF7821582102E0A7
:102B20000FF6D401DEE741700798801C0790DDE9BD
:102B3000020120F0000231F0004308BF002A02D158
:102B40000026002542E14BF02008B8F1610F40F06B
:102B500092800E99002947BF21200190491C0191C4
:102B6000019FDDE92C017F1C00220023DDE90245E5
:102B700000F048FD38BF85F0004500988DF88420AE
:102B8000001F002F00900DF1850632DD20462946FA
:102B90000022002300F050FD2BD21C2200F066FD25
:102BA00004460D4600F004FEFF1F002F804609DD9D
:102BB00000F01EFE02460B462046294600F0E2FECB
:102BC00004460D46F01D0721B8F1000F0CDD491E2B
:102BD0005EBF08F00F0200F8012D4FEA2818F3D568
:102BE00002E0002200F8012D491EFAD5C61D002F73
:102BF000CCDC0DF18500361A01980DF18504864272
:102C0000D8BF304600282FD4B04206DA0DF1850136
:102C10000A5C082AA8BF0F2100DA0021024621AB76
:102C2000134400E0401E13F80159521E8D42F9D0A2
:102C30000F2904D10DF185018B5C5B1C8B54002A9C
:102C400004D50099091D21AC401C0091411E0BD4F4
:102C5000621813783033DDB23A2DA4BF5B443A3B9F
:102C6000491E02F80139F4D50E9A002A40F1AC80D1
:102C7000411E0E91A8E00099DFF8002747F2975017
:102C8000414391FBF2F20092DDE92C45C2F10702CB
:102C9000002A25F0004504DD2046294600F04AFBC5
:102CA0000BE052420020DFF8D81600F043FB02464A
:102CB0000B462046294600F0D9FE04460D46B8F1E1
:102CC000660F06BF009F0A3706270E983F18142F7D
:102CD000C8BF142730208DF884000DF18506002F21
:102CE00034DD2046294600F0E7FF01460A4606F19A
:102CF000080304200A26B2FBF6F606EB860EA2EBCA
:102D00004E02303203F8012C0A22B6FBF2F202EB3B
:102D1000820EA6EB4E063036401E03F8026DE9D156
:102D2000083F002F03F10806D9DD084600F0D6FF62
:102D300002460B462046294600F024FE0022DFF81A
:102D4000443600F0D9FF04460D46CAE70DF1850070
:102D5000361A0DF1850404E00098401E761E00909E
:102D6000641C20783028F7D0B8F1660F02D10098A3
:102D7000401C04E0B8F1650F0CBF012000200E9943
:102D800040188642B8BF701E00281DD4B04204DA35
:102D9000215C3429C8BF392100DC30210246631E82
:102DA0009D1800E0401E15F80169521E8E42F9D0B0
:102DB000392902D1A15C491CA154002A04D50099EB
:102DC000491C1C46401C00910646009D01F06AF813
:102DD000406A0778DDF8388030B2002802DC01262E
:102DE0000FF21C644BF02000662808BF6D1C16D043
:102DF000672845D128B210F1040F47DB404545DA7A
:102E00009DF840006D1C010703D430B24045D8BF87
:102E1000804628B2B8EB000848BF4FF000080FFA10
:102E200085FBBBF1000F00F3B3800898411C0891AB
:102E3000302205990A54B8F1000F03DC9DF84000D8
:102E4000010704D50898411C089105990F5418EB07
:102E50000B0FB8BFC8F100052DB26842454432B22D
:102E60000B909542B8BF2E46059B089836B209963E
:102E700032462146184400F033FBAD1B0C95D1E0DF
:102E8000BBF1610F17D14FF0700B19E030B2404524
:102E900004DA9DF840100A0758BF8046B8F10108CF
:102EA00048BF4FF00008BBF1670F14BF4FF0450B50
:102EB0004FF0650B04E0BBF1410F08BF4FF0500B22
:102EC0000898411C0891B8F1000F059914F8012BDE
:102ED0000A5403DC9DF8400001071AD50898411CEC
:102EE0000891B8F1000F05990F5412DD761E30B22B
:102EF0008045B8BF46460598089B32B22146184423
:102F000000F0EEFA089836B230180890A8EB0600E8
:102F10000B9005980899014428B2002881F800B068
:102F200003D42B204870891C04E02D224A700546EA
:102F3000891C6D4200202CAA0AE02B460A2593FB2F
:102F4000F5F505EB8504A3EB440302F8013B401CB7
:102F50002DB2002DF1DC012806DC4BF02002652AA1
:102F600004BF302201F8012B00282CAA08D1302000
:102F700001F8010B06E0401E135C303301F8013B01
:102F80000028F8DC059A08981044091A099149E0CC
:102F900030B229B288421CDA0598089B32B2214629
:102FA000184400F09DFA089936B271180891ABEBFD
:102FB0000600B8F1000F0B9003DC9DF840000207FB
:102FC00004D5059847540999491C0991CDF83080DA
:102FD00028E00598089B2AB22146184400F080FAA0
:102FE0000898761B5844B8F1000F089003DC9DF850
:102FF00040100A0703D5411C089105990F5430B2BF
:103000008045B8BF46460598089B32B204EB0B01D9
:10301000184400F065FA089836B230180890A8EB0A
:1030200006000B909DF8400000F01400102840F0BE
:10303000C280079A08980B99821809988A188218F2
:103040000C980F998018884280F2B580081A0A906F
:10305000B1E09DF84200622808D068280ED06A28A6
:1030600014D06C281FD0712810D01CE0D9F80010A3
:1030700051F8040BC9F80010C0B21AE0D9F80010DA
:1030800051F8040BC9F8001080B212E0D9F8000022
:10309000C21D22F00702C9F80020D2E9000108325F
:1030A000C9F8002006E0D9F8001051F8040BC9F85F
:1030B00000100021CDE902019DF8400002075AD519
:1030C000DDE90201002908BF002854D04BF020029E
:1030D000782A50D1079812A930230B54401C421C67
:1030E000079201F800B046E09DF84200622808D03F
:1030F00068280ED06A2814D06C281FD0712810D0F0
:103100001CE0D9F8001051F8040BC9F8001040B2C7
:103110001AE0D9F8001051F8040BC9F8001000B2F9
:1031200012E0D9F80000C21D22F00702C9F8002001
:10313000D2E900010832C9F8002006E0D9F80010F1
:1031400051F8040BC9F80010C117CDE9020100299C
:1031500002D507982D210AE0BDF84000810702D56D
:1031600007982B2103E0C00705D50798202112AA54
:103170001154401C079012A8079901440591594623
:1031800002A800F04DF816E001200790D9F80010D1
:1031900051F8040BC9F800108DF848000BE001202D
:1031A0002521BBF1000F07908DF8481003D00221B4
:1031B00007918DF849B00F9D07980A992D1A089824
:1031C0006D1A0B992D1A09986D1A0C992D1A9DF8E4
:1031D00040006D1A41073FF5D2AA2020002D8DF83E
:1031E00000007FF7CCAA309E2C46FFF7BCBA4FF008
:1031F000FF3031B0BDE8F08FCBCCCC0C686A6C747A
:103200007A4C00007072696E74665F733A20626176
:103210006420257320617267756D656E740000000F
:103220002DE9FC4D06468846376940466F2808BFA1
:10323000082405D0FFF77EF9782814BF0A2410244B
:10324000D6E900013C2582468B46B8F1640F18BFD1
:10325000B8F1690F05D1002903D5DAF1000A6BEB4B
:103260004B0BBBF1000F08BFBAF1000F0CD1306B54
:1032700050B9082C3AD196F83800010736D53022DB
:103280003B2587F83B2031E08DF8008050465946B9
:1032900022460023FEF738FF3032D0B26D1E3A28A6
:1032A00001950EDA7A555046594622460023FEF71C
:1032B0002BFF82465FEA010B08BFBAF1000F05D170
:1032C00008E09DF800001218513AEBE7F068791910
:1032D0008842DBD3082C09D196F83800010705D5C0
:1032E000785D302802D06D1E30207855C5F13C0243
:1032F000306BB26179198242F16008DA318F821A3B
:103300004FF6EF70014031873262BDE8F38D00283F
:103310000ED596F8380000F01400102808D1736B11
:103320007069316A1B1A5B1A9B1A002BC8BF336283
:10333000BDE8F38D2DE9D04306460F4614464FF005
:103340000008DFF8449012E0E00707D542464B46FC
:103350003046394600F0D0FC06460F464046494606
:1033600042464B4600F0C8FC641080468946002C5B
:10337000EAD130463946BDE8D0830000A08601007E
:103380000000F03F84D7974100002440F8B505467F
:103390000E4617461C4600205CB117F8011BB068AA
:1033A000A847B06030B1F06A401CF0620020641E93
:1033B000F3D1F2BD4FF0FF30F2BD00007072696EC4
:1033C00074665F733A20256E20646973616C6C6F5C
:1033D000776564007072696E74663A206261642079
:1033E000256E20617267756D656E740000000000C7
:1033F0006E616E004E414E00696E6600494E460099
:103400003000FA00960064004B0032001E001400E9
:10341000C9B202788A421AB11CBF10F8012FF9E72D
:1034200018BF0020704748F63440C2F2000090F800
:103430003800704780B500B906A005490B681BB17C
:1034400022220021984701E000F030FD222002BD39
:1034500094920020636F6E73747261696E74206859
:10346000616E646C65723A20626164206D6573738D
:103470006167650000F1010310F8011B11B110F83C
:10348000011BFBE7C01A7047C9B2830706D0521E62
:1034900022D310F8013B9942F7D11FE0083A13D329
:1034A00002F1040241EA012141EA014150F8043BE2
:1034B000121F21BF4B40A3F1013C2CEA030C1CF06E
:1034C000803FF3D0C9B2001F0832521E24BF10F84B
:1034D000013B91EA030FF8D818BF0120401E704746
:1034E00062B38B0708D0521E11F8013B00F8013B74
:1034F00000F024808B07F6D1830740F0208000BFC6
:10350000103A07D330B4B1E83810103AA0E83810B8
:10351000F9D230BC530724BFB1E80810A0E8081066
:1035200044BF51F8043B40F8043BD20724BF31F8B4
:10353000022B20F8022B44BF0B7803707047121F38
:1035400017D35B0009D151F8043B20F8023B1B0C58
:10355000121F20F8023BF6D20BE051F8043B00F8B2
:10356000013B1B0A20F8023B1B0C121F00F8013B19
:10357000F3D238BF121D521E24BF11F8013B00F8D0
:10358000013BF8D8704748F63440C2F2000090F88A
:103590003900704710B5144600F002F8226010BDE3
:1035A000C1F30A5343B14A0012F5001F28D2A3F217
:1035B000FE32A1EB0251704750EA410C20D001F0DD
:1035C000004C31EA0C01B1FA81F204BFB0FA80F389
:1035D000D2180B3AB2F120032CBF00FA03F191404C
:1035E00041EA0C013EBFC2F1200C20FA0CF3194352
:1035F0009040524240F2FD33D21A01EB0351704722
:103600000022704741EA030C50EA4C0C52EA0C0CC1
:103610004FF4001C09D307D01CEB410F9CBF1CEBDF
:10362000430F8B4208BF824270471CEB430FFBD80D
:10363000994208BF9042704741EA030C50EA4C0C93
:1036400052EA0C0C4FF4001C09D307D01CEB410FBD
:103650009CBF1CEB430F994208BF904270471CEB84
:10366000410FFBD88B4208BF82427047124254D4AC
:1036700040F2FF7C1CEA11530FD0634531D09B18F8
:1036800063453CBF01EB0251704701F0004141EA44
:103690000C510020AFF30080704750EA410320D066
:1036A00001F0004C91EA0C011CD0B1FA81F30B3B04
:1036B0009A420DD9D21A994051EA0C01C3F1200C5B
:1036C00020FA0CFC61449840531C40F2FF7CD7E781
:1036D000914041EA0C01C2F1200C20FA0CF319438D
:1036E00090407047B0FA80F31533202BE0D3202AA6
:1036F000EED3203A203B9A4209D9D21A00FA03F1BC
:1037000041EA0C010020531C40F2FF7CB8E700FAAC
:1037100002F141EA0C0100207047524240F2FF7C66
:103720001CEA11530DD06345DBD0B2EB030C3CBF58
:10373000A1EB025170470CF1010221EA035141F45F
:10374000801150EA410CCCD001F0004C352A27DC26
:1037500030B481EA0C01B2F1200309DAC2F120038E
:10376000044601FA03F5D0402843D1409C400CE0C8
:10377000C3F12002450020FA03F418BF44F001040D
:1037800021FA03F091400C43002174F1004550F1FF
:10379000000051EB0C01244230BC7FF47BAF70473A
:1037A0006146002076E7D0048901D00478018901C0
:1037B000C1F30A5340F21E42D31A0CDDCA0283F34E
:1037C000070342EA505242F00042DA4002EBE17253
:1037D00082EAE17070476FEAE17203F2E13008B10A
:1037E00082F0004070470000280018007A017A013A
:1037F00010F0004160B148BF4042B0FA80F2904002
:10380000D21CC2F5846241EA025202EBD02140058B
:103810007047262725272526841A71EB030604D234
:103820006E40001BB141121973414FF4001C1CEB98
:10383000410F34BF7CEB430683E00C0DA4EB135621
:10384000362E00F37C80012E45EAC32341DC43EA97
:10385000525312BFD20292025B08240545EAC121ED
:1038600041EA5051D2EBC020994125D407D1B0FA9A
:1038700080F610FA06F162D00020203608E0B1FA96
:1038800081F6B140C6F1200220FA02F21143B040A5
:103890004FEAF474B4EB465434F001064FEA740472
:1038A0000AD8D6F50016760D04F00044F04061FA0F
:1038B00006F25040F1404840C00A40EA415021F031
:1038C000004128BF5FEA500550F1000044EBD121D0
:1038D00035E0DB0A45EAC121C90AB6F120050EDD53
:1038E00042EA0242120CC5F1200603FA06F6EB404A
:1038F00042EA06056D42984161F100010DE062FA6D
:1039000006F5F240554063FA06FC82EA0C02F340E9
:103910005A406D42904161EB030111F4801F05D1C3
:10392000641E620502D06D004041494121F48011BE
:10393000430875F1004350F1000041EB045170BCA5
:1039400070471CEB410F15D223F0004352EA4306A7
:103950000BD04FEA4C0CBCEB410F04D80C0D661E8B
:10396000342EB7DDEBE7801A994150EA410608BFD3
:103970000021E4E708BF1CEB430F28BF6FF00001F4
:10398000DDE7000070B491EA030F4FF000457FF5CA
:1039900043AF6B40841A71EB030603D2001BB141A5
:1039A000121973414FF4001C1CEB410F34BF7CEB28
:1039B000430442E00C0DA4EB1356352E4FDC45EAD0
:1039C000C323DB0A45EAC121C912B6F120050DDD8A
:1039D00063FA05F6EB4086EA0305124218BF45F08C
:1039E0000105C01851F100010CD213E062FA06F58E
:1039F000F2405540F3415A40B340F3405A408018DA
:103A0000594107D349085FEA30005FEA350528BF0E
:103A100045F0010501F58011420875F1004250F1B1
:103A2000000041EB04514E0016F5001F70BC38BF7A
:103A300070470020090D090570471CEB410F10D29B
:103A400052EA43060BD0BCEB410F05D80C0DAB433B
:103A5000661E342EB6DD02E0AB438018594170BCBF
:103A6000704770BC704700000C002700F0B540F2B2
:103A7000FF7581EA030C0CF0004C15EA11541DBFD0
:103A800015EA1357AC42AF42E5E0BC41C1F3130164
:103A9000C3F31303801A994143F4801304D2641EC4
:103AA0000018494180185941C90241EA5051B1FBFF
:103AB000F3F603FB1611A2FB0675D7EBC020A94154
:103AC00002D2761E80185941C90241EA5051B1FB19
:103AD000F3FE03FB1E11A2FB0E75D7EBC020A9411C
:103AE00003D2AEF1010E80185941890241EA90518A
:103AF000760546EA8E2EB1FBF3F603FB1611A2FB08
:103B00000675D7EB8020A94102D2761E8018594154
:103B1000C90241EA50514EEA060EB1FBF3F603FB2F
:103B20001611A2FB0675D7EBC020A94102D2761E62
:103B300080185941C90241EA5051B1FBF3F703FB28
:103B40001711A2FB0735D3EBC020A94167F100078D
:103B50000CBF004247F0010766F3D5274FEA1E313C
:103B6000B80814F5806412DDBD0775F1004250EB12
:103B70000E5051EB045111F5801F5CBF41EA0C015E
:103B8000F0BD4CF07F6141F0E0410020F0BDBD0789
:103B90006D0840EA0E5041F48011D4F10104B4F1F3
:103BA00020060ADAC4F120060200E04001FA06F31A
:103BB000E1401843B24015430EE0342C13DCC6F14B
:103BC000200445EA40056D0820FA06F2154321FA63
:103BD00006F0A1400D43002175F1004250F10000B4
:103BE00051EB0C01F0BD00205FEA0C01F0BDCFB934
:103BF00092185B41B3FA83F704BFB2FA82F6BF1999
:103C00000B3FB7F120062FBF02FA06F3BB40C7F106
:103C1000200622FA06F638BF3343BA401CB1E41935
:103C2000641E33E77F4231F00041B1FA81F404BFF2
:103C3000B0FA80F6A4190B3CB4F120062FBF00FAAD
:103C400006F1A140C4F1200620FA06F638BF314340
:103C5000A0403C1B1AE7AC421ABF05EA1357AF421B
:103C600012E050EA41061CBF52EA4306BFE750EAA1
:103C70004107304661461CBF41EA0551F0BD52EA9A
:103C8000430C08BFC143F0BD00204FF4001616EBF3
:103C9000410F98BF16EB430F08BF16EB410F24BF2F
:103CA000C14305E016EB430F0CBF61464CEA0551DA
:103CB000F0BD000000000000400D40F21E4C40EA44
:103CC000C120BCEB115C40F0004003D48CF3070131
:103CD000C84070476FEAE17070472E0050B1B0FAEB
:103CE00080F18840C91CC1F58461090501EBD02130
:103CF000400570470146704730B540F2FF7C1CEA32
:103D000011541DBF1CEA1355644565453FE0641915
:103D100081EA030C6FF35F530CF0004C43F4801303
:103D2000C90241F0004141EA505EC5021100A5FB05
:103D3000020200284FF00000EEFB01204FF00001CE
:103D4000E3FB052118BF42F0010240180021494160
:103D5000E3FB0E01A4F580640D0302D292184041EA
:103D6000494154F1010470DD450872F1004250F1FF
:103D7000000051EB0451A1F5801102D441EA0C017D
:103D800030BD40F2FF7E4CEA0E51002030BD0CEAFF
:103D90001355644518BF654581EA030C0CF0004CCF
:103DA00041D050EA410E1CBF52EA430E02E0614688
:103DB000002030BD24422C441BD15FEA050EF6D012
:103DC000090302BF01460020AEF1140EB1FA81F5DD
:103DD000AEEB050401FA05FE0C35C5F1200100FA31
:103DE00005F5C8404EEA000E6FF35F5343F48013AD
:103DF0009CE733F00043B3FA83F504BFB2FA82FEC6
:103E000075440B3D641BB5F1200E2FBF02FA0EF373
:103E1000AB40C5F1200E22FA0EFE38BF43EA0E0376
:103E2000AA40641C7CE750EA410E14BF52EA430EDC
:103E30006FF000014FF4001515EB430F8EBF1946CC
:103E400015EB410F9DE7B4D830BDD4F10104B4F1B6
:103E500020050FDAC4F12005520828BF42F0010204
:103E600010FA05FE01FA05F57244E2BFE04028436E
:103E7000E1400FE0352C9ADCC5F1200452EA400203
:103E800020FA05F218BF42F0010231FA05F0A14014
:103E90000A43002172F1004250F1000051EB0C0185
:103EA00030BD70470048704778310020012000F095
:103EB00001B8704780B5AFF30080024A11001820A6
:103EC000ABBEFBE7260002002DE9FE4FDFF8647B66
:103ED000F97800250026012908BF032002D00090B0
:103EE00008B90620C6E010F00F0F18BF0720F9D15F
:103EF000DFF8440B00884FF6FF72904208D00100B3
:103F000006D08002410B022909D300F1006001E0D4
:103F10004FF00160009901F58041884201D20820EC
:103F2000A8E0DFF8180B00F0C9FD00281CBF03282B
:103F30000C20F5D1EFF31080029072B600980FF2CA
:103F40002541396100F178400190282107F11800DE
:103F500000F0D2FDDFF8E88A98F8010098F8001028
:103F600001FB00F2022901D3032901D30D207EE0D9
:103F700008B1032A01D30E2079E007F11800C8F830
:103F80000400A94625E0143019E000F075F8002877
:103F9000FBD0DFF8B02A0121012000F0CDFDD8F8D8
:103FA0000C0050B198F800301421D8F804204B438D
:103FB000D118A1F11404A042E5D1D8F80400C8F842
:103FC000080098F801006D1CADB206EB403609F10F
:103FD000010998F800105FFA89F0884244D2142051
:103FE000009C68433419002107EB000ACAF8184006
:103FF000DDF804B0204600F0B9FBB3440028C4D07B
:10400000204600F0FFFB30B900F036F80028FBD066
:10401000DFF8342ABFE7D8F80C4024B90AF11800B9
:10402000C8F80C00BBE720460168DAF8182052787F
:104030004978914204D2521AFF2A18BF0AF1180097
:10404000C8F80C00A04204D100F016F80028FBD0FC
:10405000A5E7206898F8011000F17840400B00F0C7
:1040600048FC0028F5D09AE70120F870002002995A
:1040700081F31088BDE8FE8F98F801104FEA5B309D
:1040800000F037BCF8B59500DFF8A8790F35FB785C
:104090002D09860810242D010BB9022454E03B7928
:1040A000012B08BF04244FD008B10F244CE009B9FC
:1040B000112449E011F0030018BF122444D12AB39F
:1040C000DFF87C3903EB8613186A00281CBF986A56
:1040D000002806D0186B00281EBF986B0028092402
:1040E00032D1002603EBC607386A58B1786A8000DF
:1040F0000F30000905EB00155878400305F1100753
:10410000B84203D3761C042EECD301E013241BE049
:10411000EFF3108572B619625A62002103EBC102F7
:10412000106A58B19868066800EB8100A6194660CD
:10413000526A92000F32120904EB0214491C04293E
:10414000ECD385F31088002423460FF618120121C2
:10415000012000F0F1FC2046F2BD2DE9F041DFF82E
:10416000D448E178820800F0030309B9022541E050
:104170002179012908BF04253CD008B10F2539E079
:10418000DFF8BC0800EB821505EBC306306A08B9FE
:1041900010252FE0E86808B90A252BE0EFF3108717
:1041A00072B601202071D5F80C801146D8F80000B5
:1041B00000F0DCFA20B1D8F8000000F023FB08B9C9
:1041C0000B2513E0E96809680879002802BF706AC6
:1041D000B1F80520904217D11021E868726A0025D5
:1041E0000368306A9200C918FFF77AF9002020713D
:1041F00087F310882B460FF68C020121012000F076
:104200009BFC2846BDE8F081C879002802BF706A8F
:104210000A89904207D1B1F8051089000F310909C8
:1042200009011031D9E7887A002802BF706AB1F815
:104230000B2090420CD1B1F805000989890080005B
:104240000F310F3009090009090101EB0011E8E7FE
:10425000487B002802BF706ACA89904213D10A893C
:10426000B1F80500B1F80B10920080000F320F304A
:1042700012090009120102EB001089000F3109092F
:1042800000EB0111CDE71425B0E72DE9F84FDFF879
:10429000A467F278840800F003050AB902205EE002
:1042A00008B10F205BE0DFF8980700EB841707EBFD
:1042B000C503186A08B9102051E00091EFF3108A85
:1042C00072B673694FF0010B0BFA04F848EA030366
:1042D000DFF8789773614A4600F007FBB8780BFA6D
:1042E00005F309F124021843B87000F0FEFA0098B3
:1042F00007EB850108618AF31088307970BB00F004
:1043000016FA86F804B080F31088204600F002FB0D
:10431000022800F00CFA13D172690021317122EAEF
:1043200008027261B9700022CBB2491C07EB83040A
:10433000CDB22261042DF7D380F3108815200EE052
:10434000002134707570B170BA781201BA7080F3C0
:104350001088BB7809F1480200F0C7FA0020BDE8D8
:10436000F28F00002DE9F843DFF8C866B278012724
:104370008046DFF8CC46DFF8D856032A48D8DFE875
:1043800012F0040067002D015D012A4600F0B0F92B
:10439000DFF8C096B8F1000F4BD1317804F1080076
:1043A000890142580021106859F8212050F8213025
:1043B0009A4203D1491C0429F6D30DE000F0BBF961
:1043C0003378DFF87C06411C9B01C95C0830C35878
:1043D00006F108021868D2E000F0A9F9344600227C
:1043E000A770627180F3108826786578DFF8501620
:1043F000B601881908318E5900EBC500426A361D96
:1044000056F82510006A04F1080300F0C1FB0228E9
:1044100040F065812078012100F0D2FA00F0CCFA5A
:10442000207862690023874022EA070767612371C9
:1044300053E105F14C0200F05BF9317804F108001A
:1044400006F1080389014458042248462168C2E065
:1044500005F1B00200F04CF9B8F1000F40F0A8806F
:1044600000F0AAFA72797378D8B2032834BF5B1CC3
:10447000002330785FFA83FC521C04EB801707EBB3
:10448000CC07386A10B9D0B20428EDD372717370BA
:1044900081F31088307871790127800104290DD2C9
:1044A000614622180834205802EBC1056A6A001DD3
:1044B00050F82110286A06F108038CE004F1080185
:1044C0000858006800F09EF938B900F034F900F09F
:1044D00008F9185806F1080250E000F06DFA337838
:1044E0009B01E218D06830649068D060201D92F87B
:1044F000008050F803E0142000FB08F8D2F808C050
:104500000EEB08001438844505D104F1040C5CF866
:104510000300906003E0906800F1140393600023AF
:10452000D2F80CC00CF1040E5EF8230090B1D2F862
:1045300008E0604600F1040858F8239000680EF186
:10454000040CDEF800E0A9EB000020F0030070444A
:104550004CF823005B1C042BE2D381F31088306CF1
:1045600080B100F0E4F80221B17080F31088317856
:10457000601C06F108028901415C306C006800F1A2
:10458000784097E03078002100F01AFA00F0DBF86C
:1045900048D0002120FA01F2D20704D4491CCBB242
:1045A000202BF7D301E000F0A7F805F1FC0231E081
:1045B00005F5B67200F09CF83578717806F10803BD
:1045C000AD0160190834655900EBC100426A2C1D29
:1045D00054F82110006A00F0DBFA6EE005F5E8728D
:1045E00000F086F83078B8F1000F20D1002100F0FB
:1045F000E7F900F0A8F815D0002120FA01F2D2075F
:1046000004D4491CCBB2202BF7D301E000F074F89E
:1046100005F5067200F06CF8307800F07BF902289E
:104620002DD14CE000F083F80021317133E0611CA2
:104630008001095C06F10802306C38E005F5217252
:1046400000F056F8B8F1000F28D100F0B5F90020BD
:10465000B0700022A01C337807FA02F59B01C35CFE
:104660002B4204D1521CD3B2042BF4D300E072705D
:1046700081F31088307800F04DF902281FD000F047
:1046800056F83178A21CA31C8901525C42EA02123E
:1046900002F0F0025A5480F3108820E005F53472DD
:1046A00000F026F800F01DF806F10802185800681E
:1046B000A0F50050400B00F0B8FA02280FD1307876
:1046C000012100F07DF900F077F93078726900235C
:1046D000874022EA07077761337181F31088BDE8CC
:1046E000F1833078611C04F108038001095C704794
:1046F0000121002000F020BAEFF3108272B60020F2
:10470000B07084460B06A01C9B0CC05C07FA0CF32F
:10471000184206D10CF1010C5FFA8CF00428F1D399
:1047200001E086F801C0317082F310887047EFF322
:10473000108072B67047EFF3108072B60321B1702B
:1047400080F3108870473278A11C9201885C50B9C0
:10475000EFF3108072B63278716907FA02F2914372
:10476000716180F31088706900287047F0B5037894
:104770000022FF2B04BF4378FF2B1DD144884FF646
:10478000FF739C4204BF0579FF2D15D1B0F8054099
:104790009C4204BFC579FF2D0ED104899C4204BF01
:1047A000857AFF2D08D1B0F80B409C4201BF457BB4
:1047B000FF2DC4899C4222D0A14B03EB8117B0F896
:1047C00005600389B0F80B407D789E19C389A6194E
:1047D000ED029E19B54212D30379B3EB810F02BFEC
:1047E000C479641EB4EB810F09D1837A9B1EB3EBAD
:1047F000810F01BF407BC01EB0EB810F012210462C
:10480000F0BD00002DE9FC4704460020009000BFE9
:10481000A3A20121002504F110080027002600F0C2
:104820008BF9DFF81892B4F80520002A3CD06B46CB
:104830004146484600F06EFB30B9B4F80570BF0041
:104840000F373F093F012FE00228ECD000F00EFDAA
:10485000E9E7022818BF00F009FD2289002A23D0C9
:1048600000F03EF80028F4D1208918E0022818BF93
:1048700000F0FCFCB4F80B20B2B100F031F80028D5
:10488000F4D1B4F80B000AE0022818BF00F0EEFCE7
:10489000E2894AB100F024F80028F5D1E0898000CF
:1048A0000F30000907EB0017761C07EB080A042EEF
:1048B0000AD2032EFBD8DFE806F006050403F6E76C
:1048C000E6E7D7E7C9E7AEE700986188884208BF06
:1048D00001250346604A00F008F82846BDE8F6873F
:1048E0006B465146484600F0C3BC0121002000F051
:1048F00023B9F8B505460C4600264CB1671E04E006
:10490000781900F01FFD18B97F1CA742F8D30126C3
:104910003046F2BD2DE9FC41044600204D4E0021F9
:1049200000220023009086E80F004548002500EB98
:104930008417DFF8088106E000F0ECFA88B102285D
:1049400018BF00F093FC07EBC501086A48B1009856
:104950004A6A6B460028096A4046EDD000F088FCA0
:10496000ECE76D1C042DEED300F026F8F86818B1C2
:1049700000684278521C72700098A20032717080F8
:10498000786AA400621CA6F80500F271F86AA21CFD
:10499000B2723081786BE41C7473A6F80B00F86B6C
:1049A000F08181F31088B8682C4B042201683046EE
:1049B00000F0EEF8BDE8F681EFF3108172B67047B3
:1049C0002DE9F84F06461E48002500EB8617DFF854
:1049D00090804FF001090C4625E0281D09FA00FAE5
:1049E00011EA0A0F1DD009FA05F0014219D107EBAF
:1049F000850BDBF8101061B12046884733464246EC
:104A0000FFF773FFFFF793FE0021CBF8101080F340
:104A10001088FFF78CFEB97821EA0A01B97080F39B
:104A200010886D1CEDB2B97809B1042DD5D3BDE85D
:104A3000F18F0000F08B0020A007F90B8C300020D4
:104A400000310020A8D50208DCD50208F0CA02080F
:104A5000E46B0208609100201CE70208F88B00203C
:104A6000C0E502080D0A534E564D415F5265676915
:104A7000737465722072657475726E656420256446
:104A8000000000000D0A534E564D415F526573748D
:104A90006F72652072657475726E6564202564009E
:104AA0000D0A5374617274206F6620435243206371
:104AB0006F6D7075746174696F6E000038B50400B5
:104AC00008BF062513D0207A012808BF03250ED081
:104AD00000F072FC05000AD10648816A0123491CD6
:104AE0002160A26923726260816200F067FC28463F
:104AF00032BD00BF60300020002200F065BC70476E
:104B000030B5204C656AC1B0854213D311F1010F55
:104B10000FBF4FF0FF350125481E8540246A25420E
:104B200008D04FF48071684600F07EFC81B2684680
:104B300000F0B3FC41B030BD08B400B501ABFFF7E5
:104B4000DFFF5DF808FB000070B504460D4600F07D
:104B500089FC00BF0CA0D0E900120A4E7462C6E9BD
:104B60000012284600F003F80020B06270BD10F17A
:104B7000010F0FBF4FF0FF310121401E8140014A5C
:104B800011627047DC8E00202525255B5D5C5C256D
:104B90002DE9F0410D46DFF84463B1F1006F1BD3FE
:104BA000DFF83C4327884FF6FF7C4FF001646745F0
:104BB00017BF002FA6464FEA872E0EF1006E8E45D6
:104BC0000AD3674517BF002F2746BF0207F10067CA
:104BD000144661188F4201D2324608E0074617F0AA
:104BE000030008BF15F00F0107D006F138020121BC
:104BF0000120FFF7A1FF022015E0184600F026F97A
:104C0000804640B9B74800218760C56004610171E2
:104C1000417100F01EFE434606F17802012100209A
:104C2000FFF78AFF4046BDE8F081F8B50546AC487D
:104C300000880C464FF6FF71884201D0030001D175
:104C4000802301E083025B0BA74EAB420BD388426B
:104C500001D0010001D1802001E08002400B6119E8
:104C6000884200D334B9324601210120FFF764FFA6
:104C70000220F2BD104600F0E9F8070008D199487B
:104C800001210022456184610171427100F0E1FD62
:104C90003B4606F1240201210020FFF74DFF384674
:104CA000F2BD2DE9FC418F4D6A7900204FF00008DC
:104CB000002400900FF20D268C4F12B1012A48D02B
:104CC0008BE03A4600F0BFF8287920BB07F13802A4
:104CD00000F0B9F840F24C4000F0B0F807E0A968E5
:104CE000E86800F018FB040001D100F09BF8286987
:104CF000002801DD002CF2D000F02AFE28690028EF
:104D00006EDD07F5157200F0F3F8286A314600F001
:104D10007DFEBDE8F38107F1840200F0E9F841F27D
:104D2000040000F08BF8002009E0686900F00AFB3D
:104D300028B9A969491EA9616969491C6961A969FC
:104D400009B10028F1D000F003FEA8690028D8D1ED
:104D500046E007F1D00200F076F8A87840B907F5F0
:104D6000847200F070F8286A314600F04FFEC8E700
:104D700007F5B67200F0BCF82879A8B907F5DE721D
:104D800000F061F800F0D4FD01E000F04BF8286974
:104D9000002805DDA968E86800F0BDFA0028F4D015
:104DA0002869002814DC11E007F5027200F0A0F871
:104DB00000F0BEFD686900F0C5FA28B9A869401E78
:104DC000A8616869401C6861A86908B94FF00108CA
:104DD00000F0BEFD00F05FFEAC70B8F1000F90D0A7
:104DE000EFF3108072B60021002229706A7080F300
:104DF0001088E96959B10020884708E0694605F143
:104E0000240000F0ADFE009A01209168884705F16A
:104E1000240000F07CFE002803D129786878014343
:104E2000ECD076E7E86800F11001A868E96000F1CD
:104E300010012869A960001F2861704701212862BC
:104E4000697100F075BD0121FFF776BE70B50446AB
:104E5000EFF3108672B6234DE97829B905F12400E5
:104E600000F052FE0122EA7029786878014304D1EB
:104E7000012101202970687000E0002086F310886D
:104E800058B9002C1CBFA068002804D0214605F1A9
:104E9000240000F04FFE012070BD002C1CBFA06854
:104EA000002805D0EFF3108072B6A168E96104E034
:104EB000EFF3108072B60022EA6180F310880020C0
:104EC00070BD000080B50120064B98700AA200F06A
:104ED0000FF8BDE8014000F0BCBC0000A4C502080A
:104EE000A007F90BB08E002000E1020888870208B5
:104EF00001210020FFF720BE0D0A464D5F57696E65
:104F0000646F77416C6C6F7765645F43616C6C6252
:104F100061636B002DE9F8430400884691461E4604
:104F200018BFB8F1000F00D00EB9062522E0207A94
:104F300008B904251EE0114F2068B96A814200D3E8
:104F400008B9052516E000F037FA054690B9786AE9
:104F50002168884203D0204600F01AFE38B94A463C
:104F60004146384600F0B4FE3060606000E007253E
:104F700000F024FA2846BDE8F28300BF603000202C
:104F800080B500F015FF00F06BFB00F014F800F0A6
:104F900063F800F032F900F073F800F0A2F800F0C6
:104FA000B8F800F0A7F800F088F8002000F067FBE0
:104FB00000F008FCFCE780B598B0402108A800F09C
:104FC00011FF2021684600F00DFF022000F038FF9D
:104FD000002000F00BFF08B100F048F900F062FF7C
:104FE00096480268012161F3C4024FF480310260E7
:104FF0004FF4801209910A9281214FF480720720A8
:105000000B910C920890102100220D91109208A88B
:10501000FCF7D6FC08B100F029F902210191002229
:105020003F200292002100900391402205910691B9
:105030000791049201216846FCF70BFF08B100F0CC
:1050400015F90220FDF740FA0E20FDF77BF908B1B3
:1050500000F00CF919B000BD80B592B04821684647
:1050600000F0C0FE4FF400424FF4802100921191F5
:10507000684600F03BFF08B100F0F8F813B000BD3F
:1050800080B56F480168002241F0010101600068AD
:10509000062100F001000090009B1D20FDF7B4F9EF
:1050A0001D20FDF7D9F9002205211E20FDF7ACF9DE
:1050B0001E20BDE80240FDF7CFB980B56148016808
:1050C00021F480710160002001F056F808B100F071
:1050D000CDF801F05DF800B100E001BDBDE8014090
:1050E000C4E080B558485949016001F061F800B149
:1050F000F4E701BD80B55648564920220160426060
:1051000001F07CF808B100F0B1F8BDE8014001F011
:10511000E5B830B593B01C21684600F063FE30213D
:1051200007A800F05FFE4C4C4C4820604FF08040D8
:105130001F210022E0614FF48075A160226162614D
:10514000A26122626562204601F0D0F908B100F048
:105150008DF8002000900390049005906946204649
:1051600001F0A4FB08B100F081F8204601F089FBB2
:1051700008B100F07BF800204FF07C510E900890B1
:105180000C900D911295012207A9204601F0FEF91D
:1051900008B100F06BF813B030BD10B5304C314899
:1051A00020600C2060614FF400404FF4E131002298
:1051B000E0616160A260E2602261A26122626262DB
:1051C000A2622046FAF7CCFF08B100F04FF80021A8
:1051D000204601F0ACFB08B100F048F80021204661
:1051E00001F0B0FB08B100F041F8204601F07EFB71
:1051F00010B1BDE8104039E010BD82B01A48026815
:1052000042F002020260016801F002010091009A7E
:10521000036843F001030360016801F0010100919C
:105220000099026842F004020260006800F0040085
:105230000090009802B001F0D9BB0000F00C0246CB
:10524000880C02460408024690910020006002404B
:10525000F090002000080C42808E0020007800466C
:1052600044850020003801408C0C024672B6FEE7EF
:105270002DE9F8430400884691461E4618BFB8F150
:10528000000F00D00EB906252BE0207A08B90425BE
:1052900027E0154F2068B96A814200D308B9052577
:1052A0001FE000F089F80546D8B9786A216888427D
:1052B00005D14A464146384600F0EDFC0BE0204659
:1052C00000F066FC50B9606839684A46086141469A
:1052D000384600F0FDFC3060606000E0072500F01B
:1052E0006DF82846BDE8F2836030002010B5EFF37A
:1052F000108272B6012303FA00F02D4B21B101296F
:1053000006D11968084302E01C6824EA000018600E
:1053100082F3108810BD0A46254938B50B68012470
:105320009D0704D50B685D0701D5012032BD0B68D0
:10533000DD07FCD40146012000F0C8FA00B90024C2
:10534000204632BD38B584B01A490A8801244FF688
:10535000FF718A4201D0130001D1802201E0920244
:10536000520B824206D3124A13689D0704D5136874
:105370005D0701D5012019E01368DD07FCD4022286
:1053800001920C4D2A888A4201D0110001D17F225E
:1053900002E09202520B521E1040029003946946A2
:1053A00001A801F025FB00B90024204605B030BD5E
:1053B00074920020A007F90B00207047002070476E
:1053C00062F30F2262F31F42401810F0030308D06B
:1053D000C91A1FD3DB0748BF00F8012D28BF20F8EA
:1053E000022D130030B414461546103928BF20E9A9
:1053F0003C00FAD8490728BF20E90C0048BF40F814
:10540000042D890028BF20F8022D48BF00F8012D87
:1054100030BC7047C91818BF00F8012DCB0728BF52
:1054200000F8012D704770471CB584B0002303932A
:1054300000290EBF01930190491E0291002400949F
:1054400005AB01A9064878441630FDF776F80199B6
:1054500001B10C70002858BF039806B010BD00BF02
:105460007BCFFFFF10B5DFF8F04118220021204666
:1054700001F01CFB4FF48052002104F1180001F0F0
:1054800015FBDFF8D82111680FF2D100BDE81040FC
:105490000847DFF8C8219168084738B504460D462B
:1054A00000F0C8F86946284600F098F810F1010F9E
:1054B00016D0002068490CE0BDF80030225C401C8A
:1054C0000B441A76BDF80020521CC2F30B02ADF853
:1054D0000020A842F0D300F0B5F800F006F832BD85
:1054E00000F0B0F86FF0020032BD70B50026EFF3A7
:1054F000108472B6584DE88A60BB00F09BF8698A48
:10550000288A884224D0AA78012A0AD12E8800232A
:105510002B80301A022283B20BB900222B82AA7090
:10552000A882A8782A8A28B98A4234BF891AC2F583
:105530008051A982A81800F1180684F3108800F0A1
:105540008DF9464BA98ADA6830469047064603E053
:1055500000F078F884F31088304670BD70B5EFF332
:10556000108172B63C4A9078022803D100239370D0
:10557000002004E0138A908AC018C0F30B00538AFD
:105580001082984223D0D48A012C20D19478012C07
:105590000AD1168800251580301A022485B20DB96B
:1055A00000241582947090829078148A28B99C42C5
:1055B00034BF1B1BC4F5805393821019183081F33C
:1055C0001088918A254BDA68BDE87040104781F356
:1055D000108800F044F9BDE8704033E0F0B54FF0BA
:1055E000FF32EFF3108372B61B4C258A668AAE42F7
:1055F00001D0B5420ED2C6F58056B7B2B8420AD332
:10560000A84213D2668A0125A57026800025268A25
:10561000658200E0AE1BB6B2B04207D2628A0A8051
:10562000618A00224018C0F30B00608283F3108867
:105630001046F0BDEFF3108072B60749CA8A521CBB
:10564000CA8206E0EFF3108072B60349CA8A531E7D
:10565000CB8280F3108870473C3500202CEA02088A
:1056600080B5002200926946002001F035FA00283A
:1056700012BF0C200098807B00F05EFD01BD7CB560
:10568000002001F0B1F97B4801687B4C41F4000136
:10569000016001F037FA794800F00AFC784AD2E953
:1056A0000001FFF751FA01F055FB01F0C1FB01F0D9
:1056B0007BFC01F02FFF04F1600001F057FF08B1FF
:1056C000FFF7D4FD6F4A0021402002F08DF900F071
:1056D000AEFE6D4A0021012002F086F96B4A0021DE
:1056E0004FF4807002F080F901210120FFF7FEFDE8
:1056F00000210220FFF7FAFD00210020FFF7F6FD50
:10570000002002F0CBF9012002F0C8F9022002F0DB
:10571000C5F9012002F0FBF90020012102222070CE
:1057200084F8201084F8402002F002FA01210120C0
:1057300002F0FEF90121022002F0FAF9544A002198
:105740004FF4806002F050F9524A00214FF400609B
:1057500002F04AF9504A00214FF4805002F044F917
:1057600000250FF27D0604EB451033460022009021
:105770000021001D01F0CCF96D1C022DF3D9474A20
:105780000021802002F030F9454909884FF6FF7268
:10579000914201D0080001D1424803E0C9084248C3
:1057A00000EB4130FEF790FB08B1FFF75FFD02F020
:1057B0006DFA01210220FFF799FD002001F015F993
:1057C000002076BD4FF0FF3002F09AB8890002F059
:1057D000D3BF800002F074BF02F0B7BF000000002A
:1057E00010B50446207802F01AFA207794F80030B9
:1057F00031A202215B1C0020FFF79EF9207818B12E
:10580000022809D004D310BD00214FF4806006E0C7
:1058100000214FF4006002E000214FF48050BDE809
:10582000104002F0EFB870477047704700218020A9
:1058300002F0E8B80021012002F0E4B81B49016041
:105840001B4A1C4B4260836070470021402002F0DD
:10585000D9B800214FF4807002F0D4B87047704777
:10586000054901EB401000224FF4FA710277001D48
:1058700001F0A3B9F40C0246F02F002040000030E4
:10588000C8EA0208C1780008A1640008A34C000817
:105890009B850008B3850008ED850008D5BA00088F
:1058A000A007F90B00C00F0800C0FF07CD57000884
:1058B000D3570008D9570008427574746F6E2025BD
:1058C0006420707265737365640A0000F8B500F0B7
:1058D00021F801D10220F2BD00F023F8010016D119
:1058E00024F000400128BC603146284602D100F077
:1058F00060F801E000F064F84FF47A7000F033F8DB
:1059000038490A6824F0004422EA04040C600021AB
:105910003970F2BD0446344F38780D4616460128DA
:10592000704701203870002179604FF47A701AE0D6
:105930002F490A6A0020002A00D4704710B52D4A6A
:105940000A602D4C0C60096A002948BF012010BD77
:1059500024490A68012042F000420A6009680029CF
:1059600048BF0020704770B50546FCF7E5FC2E18CF
:105970001E4C206810F4403F08D015F1010FF8D0FC
:10598000FCF7DAFCB042F4D3032070BD216842F288
:10599000FA00084006D014494A6802434A60206071
:1059A000012070BD2068C10744BF01202060002095
:1059B00070BD10B50B4A136800F020F8042207E010
:1059C00010B5084A136843F4804300F017F820220A
:1059D00051F8044B521E40F8044BF9D183F3108860
:1059E00010BD000028200240C0900020202002406E
:1059F0000820024023016745AB89EFCD43F0010346
:105A00001360EFF3108372B67047704738B5002209
:105A100090B00B003AD0EFF3108372B6394C257872
:105A2000012D0EBF01220125257083F310886ABB6A
:105A300000236160CDE90223CDE9062309928DF8A8
:105A40002C200BA905224A700FF29D028A600022C9
:105A50000A61CDE9043308900A934B60CB604FF4A0
:105A60007A710025B0FBF1F100950FF2650304F1A6
:105A70000C0001F04DF802A802F0C2FEA06038B997
:105A8000EFF3108072B6257080F31088012000E0DB
:105A9000002011B030BD38B51A4C04F10C0001F0F3
:105AA000A3F8A06802F010FF00280CBF0025022513
:105AB00000F009F8EFF3108072B60021217080F336
:105AC0001088284632BD01210120FFF70FBC0000DD
:105AD00080B5FFF7F8FFEFF3108072B60021094A96
